:100000000C943B070C946C070C946C070C946C07D5
:100010000C946C070C946C070C946C070C946C0794
:100020000C946C070C946C070C946C070C946C0784
:100030000C946C070C946C070C946C070C946C0774
:100040000C946C070C946C070C946C070C946C0764
:100050000C946C070C946C070C946C070C946B1E3E
:100060000C946C070C94351E0C940B1E0C946C07AE
:100070000C946C070C946C070C946C070C946C0734
:100080000C946C070C946C070C946C070C946C0724
:100090000C946C070C946C070C946C070C946C0714
:1000A0000C946C070C946C070C946C070C946C0704
:1000B0000C946C070C946C070C946C070C946C07F4
:1000C0000C946C070C946C070C946C070C946C07E4
:1000D0000C946C070C946C070C946C070C946C07D4
:1000E0000C946C070C94CF180C946E070C946F1B37
:1000F0000C9404080C9428090C94F30B0C94710DC7
:100100000C9410090C94C21E0C9424090C940C0934
:100110000C943C1B0C94640C0C94D7080C94F00CBD
:100120000C94321B0C94310D0C94F8080C940809B3
:100130000C94A21B0C9452150C9447190C94F108C2
:100140000C94B8230C94AA070C944B1A0C945108E5
:100150000C949E170C9470180C94ED080C94740A6F
:100160000C9436130C94FE080C946C1B0C94E90848
:100170000C941E090C94D2080C94F71A0C949B074B
:100180000C94F5080C9402090C94DA0D0C94180EDA
:100190000C94CC070C941A090C94820B0C949013B9
:1001A0000C94BE070C941609000001010600000122
:1001B00000030A0702F6050006040801F608000B12
:1001C0000A0D01F61600080D0B02F523000E0A0FAA
:1001D00001F635000C0A0E01F6440003040501F691
:1001E0004600050C0701F54E00050C0701F5560009
:1001F00008070800F65D0009080D02F8660004050E
:100200000600FD690005020701FB6B000303060100
:10021000FD6D00060C0600F67600090A0B01F68259
:1002200000070A0B02F68B00080A0B01F69500097D
:100230000A0B01F6A100090A0B01F6AD00090A0B31
:1002400001F6B900090A0B01F6C500090A0B01F60F
:10025000D100090A0B01F6DD00090A0B01F6E900DD
:1002600003080701F8EC00040A0700F8F1000A0887
:100270000D01F8FB000A060D01F803010A080D0143
:10028000F80D01070A0901F616010D0C0F01F62AF7
:10029000010C0A0C00F63901090A0B01F645010AA6
:1002A0000A0C01F652010A0A0C01F65F01080A0A5B
:1002B00001F66901080A0A01F673010B0A0D01F63D
:1002C00081010A0A0C01F68E01030A0501F692016A
:1002D000050D05FFF69B010B0A0C01F6A901080AA2
:1002E0000A01F6B3010C0A0E01F6C2010A0A0C015A
:1002F000F6CF010B0A0D01F6DD01090A0B01F6E943
:10030000010B0C0D01F6FA010A0A0B01F6070209AE
:100310000A0B01F61302090A0B01F61F020A0A0C66
:1003200001F62C020C0A0C00F63B020E0A1001F634
:100330004D020B0A0B00F65B020B0A0B00F669027A
:100340000A0A0C01F67602050C0701F57E02060C7E
:100350000600F68702050C0701F58F020A040D015D
:10036000F694020801080002950205030801F497BB
:100370000208080A01F89F02090B0B01F5AC0208FC
:10038000080A01F8B402090B0B01F5C10209080BB8
:1003900001F8CA02060B0701F5D302090B0B01F89D
:1003A000E002090B0B01F5ED02030B0501F5F2026A
:1003B000050E05FFF5FB020A0B0A01F50903030B05
:1003C0000501F50E030D080F01F81B0309080B01C9
:1003D000F8240309080B01F82D03090B0B01F83A67
:1003E00003090B0B01F8470307080801F84E03083F
:1003F000080A01F85603060A0700F65E0309080B0F
:1004000001F867030A080A00F871030D080F01F8E4
:100410007E030A080A00F888030A0B0A00F896030C
:1004200008080A01F89E03070D0B02F5AA03030E44
:100430000602F5B003070D0B02F500DB6DB0D8DB4B
:100440006DB6098320643FE130643FE130260C80C3
:10045000101078D4D0F07C1E16967C101070636358
:100460000D9C36E0DB71DB60ED873618D8C1C01E0D
:1004700003103003806C6C66C34C1C63C3E6DB6006
:1004800073198C6318C318E0E3186318C63319C0D6
:1004900010927C387C9210180C061FEFF0C0603070
:1004A000666480F780DB0018610C308218610C30C4
:1004B0003C3330D86C361B0D86661E007160C183DC
:1004C000060C1831F87C8E06060E1C3870E0FE7E95
:1004D0004180C063E0380C06873E000E0B098CCCCF
:1004E0006433FC0C060300FE60301F8860180C06A5
:1004F000863E003C31301F8E661B0D86661E00FF57
:10050000018180C0E06070303818007E61B0D8632F
:10051000C73B0D86E73F003C3330D86C3338FC06D0
:10052000461E00DB01B666600666480081E3E3C054
:10053000F00F807802FFBFE00000FFBFE0803C03C7
:10054000E01E078F8F0200791830E38E180060C01C
:100550000F818210089F29994CCA6653344FC200FC
:100560000C301F000E00E01B01B03183183F860CD9
:1005700060CC06FE61B0D86FE61B0D86C37F001FFE
:100580009C260300C0300C01807087E0FC31CC3326
:1005900006C1B06C1B0CC73F00FEC0C0C0FEC0C08F
:1005A000C0C0FEFEC0C0C0FEC0C0C0C0C01F8E1113
:1005B00080600C3D81B0330670C3F8C1B06C1B067F
:1005C000FFB06C1B06C1B060DB6DB6D8318C631810
:1005D000C6318C6E00C318C3306C0F01B0330630C7
:1005E000C31830C0C0C0C0C0C0C0C0C0FEE0EF1E55
:1005F000F1EDB6DB6CE6CE6C46C06C06E1B86F1B65
:1006000046D9B36CDB1EC3B0E01E0C3186606C0DA6
:1006100081B0330C6183C0FC63B0D86C363BF18091
:10062000C060001E0C3186606C0D81B0330C61839C
:10063000C00C00C0FE30CC330CC73F8C630CC33001
:10064000607E61301E07E0F80C06837F00FF0C0619
:10065000030180C06030180C00C1B06C1B06C1B033
:100660006C1B06630F80C0660C60C60C3183181BC0
:1006700001B01B00E0C71B1C6C71994C6DB1B6C674
:100680008B0E3838E0E380E1CC30CC1981E03C0CB3
:10069000C198619C38E1CC30CC1981E0180300602E
:1006A0000C0180FF806030180C06030180C03FE021
:1006B000F6318C6318C631E0C3041860820C3041F7
:1006C00086F18C6318C6318DE01C0F877306FEC35C
:1006D0000C3C46067EC6C6CE76C060301B8E661BBE
:1006E0000D86C37337003C62C0C0C0C0623C0301CA
:1006F00080C766761B0D86C3338EC03C3330DFEC7B
:100700000601847C39863E6186186186003B33B0E1
:10071000D86C36199C7603230F00C060301BCE3690
:100720001B0D86C361B0C0D86DB6DB003180631885
:10073000C6318C6370C0300C0318CC360F0360CC0C
:10074000318C30DB6DB6DB00DDE739B18D8C6C634D
:10075000631B18D8C6DE71B0D86C361B0D863C33CF
:1007600030D86C36199878DC7330D86C361B99B851
:10077000C06030003B33B0D86C36199C76030180E2
:10078000C0DDC3060C1830607CC2C0FC7E06867CCF
:10079000618F9861861860E0C361B0D86C361B1C0D
:1007A000F6C198C6318C360D81C070C63631999825
:1007B000DEC6F614A0E70738E398C360701C0D8608
:1007C000338EC198C6318C360D8160700C0707805E
:1007D000FE060C183060C0FE1C60C183063818305D
:1007E00060C181C0DB6DB6DB6D80E060C183060750
:1007F000183060C18E00EF03038002CF0300C130C8
:10080000ED0464031281E803850078CB05392C00E0
:100810003402F70120EA020000C00123C10110C523
:10082000023E28C701863601483701003A0155B11A
:10083000020018B603088227F20100260101E00F2A
:100840000F312B0C0E084EF1370710030E0900E193
:100850000F000E1403110731C148080F0C31360F79
:10086000118029800000000000003E5B4F5B3E3E8F
:100870006B4F6B3E1C3E7C3E1C183C7E3C181C574C
:100880007D571C1C5E7F5E1C00183C1800FFE7C3F0
:10089000E7FF0018241800FFE7DBE7FF30483A06BF
:1008A0000E2629792926407F050507407F05253F2B
:1008B0005A3CE73C5A7F3E1C1C08081C1C3E7F1417
:1008C000227F22145F5F005F5F06097F017F006661
:1008D00089956A606060606094A2FFA29408047EBB
:1008E000040810207E201008082A1C08081C2A086A
:1008F000081E101010100C1E0C1E0C30383E383024
:10090000060E3E0E06000000000000005F00000022
:1009100007000700147F147F14242A7F2A12231350
:1009200008646236495620500008070300001C2264
:1009300041000041221C002A1C7F1C2A08083E0896
:100940000800807030000808080808000060600097
:1009500020100804023E5149453E00427F4000728B
:10096000494949462141494D331814127F10274502
:100970004545393C4A494931412111090736494920
:100980004936464949291E00001400000040340041
:1009900000000814224114141414140041221408F5
:1009A00002015909063E415D594E7C1211127C7FAD
:1009B000494949363E414141227F4141413E7F49BB
:1009C0004949417F090909013E414151737F0808A6
:1009D000087F00417F41002040413F017F081422F1
:1009E000417F404040407F021C027F7F0408107F0F
:1009F0003E4141413E7F090909063E4151215E7F4A
:100A000009192946264949493203017F01033F401C
:100A100040403F1F2040201F3F4038403F631408A4
:100A2000146303047804036159494D43007F414135
:100A3000410204081020004141417F0402010204E8
:100A40004040404040000307080020545478407F55
:100A5000284444383844444428384444287F38548F
:100A600054541800087E090218A4A49C787F080436
:100A7000047800447D40002040403D007F10284421
:100A80000000417F40007C047804787C08040478EE
:100A90003844444438FC1824241818242418FC7CB6
:100AA00008040408485454542404043F44243C409B
:100AB00040207C1C2040201C3C4030403C442810FE
:100AC00028444C9090907C4464544C440008364137
:100AD0000000007700000041360800020102040215
:100AE0003C2623263C1EA1A161123A4040207A38C0
:100AF0005454555921555579412254547842215521
:100B000054784020545579400C1E52721239555574
:100B10005559395454545939555454580000457C4A
:100B2000410002457D420001457C407D1211127D4D
:100B3000F0282528F07C545545002054547C547CE2
:100B40000A097F4932494949323A4444443A324ACF
:100B50004848303A4141217A3A42402078009DA0ED
:100B6000A07D3D4242423D3D4040403D3C24FF246B
:100B700024487E4943662B2FFC2F2BFF0929F620A2
:100B8000C0887E090320545479410000447D4130DF
:100B900048484A32384040227A007A0A0A727D0D6B
:100BA00019317D2629292F28262929292630484D23
:100BB0004020380808080808080808382F10C8AC72
:100BC000BA2F102834FA00007B000008142A1422DF
:100BD00022142A14085500550055AA55AA55AAFFF3
:100BE00055FF55FF000000FF00101010FF00141407
:100BF00014FF001010FF00FF1010F010F014141478
:100C0000FC001414F700FF0000FF00FF1414F404AC
:100C1000FC141417101F10101F101F1414141F00A1
:100C2000101010F0000000001F101010101F101006
:100C30001010F010000000FF101010101010101015
:100C400010FF10000000FF140000FF00FF00001F55
:100C500010170000FC04F414141710171414F404F3
:100C6000F40000FF00F714141414141414F700F720
:100C7000141414171410101F101F141414F414104B
:100C800010F010F000001F101F0000001F140000E3
:100C900000FC140000F010F01010FF10FF141414EA
:100CA000FF141010101F00000000F010FFFFFFFFE6
:100CB000FFF0F0F0F0F0FFFFFF0000000000FFFF8A
:100CC0000F0F0F0F0F3844443844FC4A4A4A347E11
:100CD00002020606027E027E0263554941633844E1
:100CE000443C04407E201E2006027E020299A5E7B5
:100CF000A5991C2A492A1C4C7201724C304A4D4D50
:100D0000303048784830BC625A463D3E4949490037
:100D10007E0101017E2A2A2A2A2A44445F44444053
:100D2000514A444040444A51400000FF0103E080E2
:100D3000FF000008086B6B083612362436060F09D0
:100D40000F06000018180000001010003040FF01CE
:100D500001001F01011E00191D1712003C3C3C3C04
:100D6000000000000000002100240027002A002DC0
:100D7000003000330001010000040107010A0100F6
:100D8000000A0B02090C0D0E080703040100000005
:100D90000000000000000000000000000000000053
:100DA0000000000000000000000000121110000010
:100DB0000000000000000000000000000000000033
:100DC00000000000003A04A801207E11010210205A
:100DD0002008081020401020408002010201080471
:100DE0000201010204081020408080402010080405
:100DF000020180040201804020100804020108045E
:100E000002010102040810204080010204081020A1
:100E1000408000002200250028002B002E00310019
:100E2000340002010000050108010B01050505055C
:100E3000070508080808020202020A0A0808040452
:100E40000404010101010101010103030303030380
:100E50000303040707070C0C0C0C0C0C0C0C02020F
:100E6000020206060606060606060B0B0B0B0B0B0C
:100E70000B0BC21EB82311241FBECFEFD1E2DEBF81
:100E8000CDBF00E00CBF12E0A0E0B2E0E2E9FCE47C
:100E900000E00BBF02C007900D92A23CB107D9F74A
:100EA0002AE0A2ECB2E001C01D92A03DB207E1F73A
:100EB00017E0CAE3D7E000E006C021970109802FC0
:100EC000FE010E94FD23C933D10780E00807A9F77E
:100ED0000E94C3200C9437260C940000AF92BF925E
:100EE000CF92DF92EF92FF920F931F93CF93DF93F6
:100EF0006C017B018B01040F151FEB015E01AE1825
:100F0000BF08C017D10759F06991D601ED91FC9146
:100F10000190F081E02DC6011995892B79F7C50163
:100F2000DF91CF911F910F91FF90EF90DF90CF90C5
:100F3000BF90AF900895FC01538D448D252F30E074
:100F4000842F90E0821B930B541710F0CF960895D6
:100F500001970895FC01918D828D981761F0A28D03
:100F6000AE0FBF2FB11D5D968C91928D9F5F9F73C9
:100F7000928F90E008958FEF9FEF0895FC01918D7F
:100F8000828D981731F0828DE80FF11D858D90E0EC
:100F900008958FEF9FEF0895FC01918D228D892F89
:100FA00090E0805C9F4F821B91098F739927089571
:100FB00082ED94E00E94CC0721E0892B09F420E027
:100FC000822F0895FC01A48DA80FB92FB11DA35A3B
:100FD000BF4F2C91848D90E001968F739927848F59
:100FE000A689B7892C93A089B1898C91837080647C
:100FF0008C93938D848D981306C00288F389E02D1D
:1010000080818F7D80830895EF92FF920F931F93CD
:10101000CF93DF93EC0181E0888F9B8D8C8D9813AB
:101020001AC0E889F989808185FF15C09FB7F894B7
:10103000EE89FF896083E889F98980818370806403
:1010400080839FBF81E090E0DF91CF911F910F914E
:10105000FF90EF900895F62E0B8D10E00F5F1F4F5D
:101060000F731127E02E8C8D8E110CC00FB607FC6C
:10107000FACFE889F989808185FFF5CFCE010E94FA
:10108000E207F1CFEB8DEC0FFD2FF11DE35AFF4F7F
:10109000F0829FB7F8940B8FEA89FB898081806288
:1010A000CFCFCF93DF93EC01888D8823B9F0AA8945
:1010B000BB89E889F9898C9185FD03C0808186FD13
:1010C0000DC00FB607FCF7CF8C9185FFF2CF808162
:1010D00085FFEDCFCE010E94E207E9CFDF91CF91EE
:1010E000089580E090E0892B29F00E94D8078111B3
:1010F0000E94000080E090E0892B49F080E090E0C1
:10110000892B29F00E94000081110E94000080E0DC
:1011100090E0892B49F080E090E0892B29F00E9433
:10112000000081110E94000080E090E0892B49F0CE
:1011300080E090E0892B29F00E94000081110C943E
:1011400000000895282F30E0F901E158F24F949102
:10115000F901E453F24F4491245D314FF901249198
:10116000222309F435C0992311F191509231F8F4FA
:10117000E92FF0E08827E054F74F8F4F0C94FD23C0
:10118000F108F508D208E908ED08D708F808FE08C4
:10119000020908090C09100916091A09D7081E09BD
:1011A00024092809809180008F7780938000E22FA6
:1011B000F0E0EE0FFF1FEE5EF14FA591B4918FB7F7
:1011C000F894EC91611148C040954E234C938FBF29
:1011D0000895809180008F7DE8CF80918000877F87
:1011E000E4CF84B58F7784BDE2CF84B58F7DFBCF0C
:1011F0008091B0008F778093B000D9CF8091B000FC
:101200008F7DF9CF809190008F7780939000CFCF22
:10121000809190008F7DF9CF80919000877FF5CFEE
:101220008091A0008F778093A000C1CF8091A00013
:101230008F7DF9CF8091A000877FF5CF809120012D
:101240008F7780932001B3CF809120018F7DF9CFDC
:1012500080912001877FF5CF4E2BB8CFCF93DF93BE
:1012600090E0FC01E453F24F2491845D914FFC0126
:1012700084918823D1F090E0880F991FFC01EB59ED
:10128000F24FA591B491FC01EE5EF14FC591D4915E
:1012900061110EC09FB7F8948C91E22FE0958E23D8
:1012A0008C932881E223E8839FBFDF91CF9108953B
:1012B0008FB7F894EC91E22BEC938FBFF6CF3FB74A
:1012C000F8948091CE049091CF04A091D004B09175
:1012D000D10426B5A89B05C02F3F19F00196A11D8A
:1012E000B11D3FBFBA2FA92F982F8827BC01CD0170
:1012F000620F711D811D911D42E0660F771F881FCF
:10130000991F4A95D1F708958F929F92AF92BF92FD
:10131000CF92DF92EF92FF924B015C010E945F0936
:101320006B017C010E945F096C197D098E099F0980
:10133000683E734081059105A8F321E0821A910867
:10134000A108B10888EEC80E83E0D81EE11CF11C8C
:1013500081149104A104B10429F7FF90EF90DF906C
:10136000CF90BF90AF909F908F9008952FB7F89433
:101370006091CA047091CB048091CC049091CD040B
:101380002FBF0895FC01A5A1B6A18C9192A5892338
:101390008C93A5A1B6A18C9191A5892B8C930895CE
:1013A0000F931F93CF93DF93EC018B018DA98111D4
:1013B0000DC01EBD0DB407FEFDCF0EBD0DB407FE62
:1013C000FDCFDF91CF911F910F9108958130E9F406
:1013D00080E1E9A1FAA1908117FF14C02DA1922B01
:1013E0009083EBA1FCA190812FA1922B9083EBA184
:1013F000FCA1908128A592239083000F111F81509A
:1014000041F7DFCF2EA19223EBCFEF8DF8A1108310
:10141000CE010E94C209EF8DF8A10083CE01DF91B9
:10142000CF911F910F910C94C209FC0185A98111E4
:1014300005C06EBD0DB407FEFDCF08958130E1F407
:1014400088E0A1A1B2A19C9167FF13C025A1922BB6
:101450009C93A3A1B4A19C9127A1922B9C93660F6E
:10146000A3A1B4A19C9120A592239C93815049F7FC
:10147000089526A19223ECCFA78DB0A16C93CF0144
:101480000C94C209CF93DF93EC01ED8DFE8D80812A
:101490009CA989238083CE010E94150AED8DFE8DC3
:1014A00080819BA9892B8083DF91CF9108951F9321
:1014B000CF93DF93EC01162FE881F9810284F38545
:1014C000E02D1995112371F06DADCE010E94420AF5
:1014D000E881F9810688F789E02DCE01DF91CF916F
:1014E0001F9119946EADF1CFAF92BF92CF92DF9260
:1014F000EF92FF920F931F93CF93DF93EC0177FD51
:1015000038C088859985681779079CF557FD31C0E3
:101510008A859B854817590764F569017A015B0143
:10152000E881F9810284F385E02DCE011995E881E7
:10153000F98102A4F3A5E02D01E010E021E030E004
:10154000A701B501CE011995B601CE010E94D009BF
:10155000E881F9810688F789E02DCE01DF91CF91EE
:101560001F910F91FF90EF90DF90CF90BF90AF90C1
:101570001994DF91CF911F910F91FF90EF90DF9021
:10158000CF90BF90AF9008958F929F92AF92BF92ED
:10159000CF92DF92EF92FF920F931F93CF93DF933F
:1015A000EC0149015701E881F98102A4F3A5E02D7E
:1015B00019959401D8010E9405246B017C01C11486
:1015C000D104E104F10409F490C08DA9811115C082
:1015D00081E0C81AD108E108F1088FEFC816D806D3
:1015E000E806F80609F481C0BEBC0DB407FEFDCFC5
:1015F000AEBC0DB407FEFDCFEBCF813009F045C086
:1016000081E0C81AD108E108F1088FEFC816D806A2
:10161000E806F80609F469C09B2D88E0E9A1FAA163
:10162000208197FF2CC03DA1232B2083EBA1FCA19F
:1016300020813FA1232B2083EBA1FCA1208138A591
:1016400023232083990F815049F79A2D88E0E9A13F
:10165000FAA1208197FF16C03DA1232B2083EBA187
:10166000FCA120813FA1232B2083EBA1FCA12081A1
:1016700038A523232083990F815049F7C1CF3EA17C
:101680002323D3CF3EA12323E9CFBA1016C0CC0C1D
:10169000DD1CEE1CFF1CEF8DF8A1B08281E0C81AA2
:1016A000D108E108F1088FEFC816D806E806F80659
:1016B000E1F0CE010E94C209F1CF81E0C81AD10841
:1016C000E108F1088FEFC816D806E806F80669F0B9
:1016D000EF8DF8A1B082CE010E94C209EF8DF8A172
:1016E000A082CE010E94C209E8CFDF91CF911F9165
:1016F0000F91FF90EF90DF90CF90BF90AF909F90B1
:101700008F9008958F929F92AF92BF92CF92DF9267
:10171000EF92FF920F931F93CF93DF935C014B01E6
:101720006A01E90177FD52C0DC0118968D919C9108
:10173000681779070CF04AC0209709F447C037FFB3
:1017400007C0C9010196C80ED91ED195C195D1090E
:10175000F50182859385C816D906C4F5A6014C0FFC
:101760005D1F9A012150310937FD30C0D7FE03C0FB
:10177000EA01D12CC12C281739071CF0EC01CC1937
:10178000DD09D501ED91FC910284F385E02DC501C1
:10179000199578018E0121E030E0A601B401C50160
:1017A0000E94C40AD501ED91FC910688F789E02DCD
:1017B000C501DF91CF911F910F91FF90EF90DF90C6
:1017C000CF90BF90AF909F908F901994DF91CF9161
:1017D0001F910F91FF90EF90DF90CF90BF90AF904F
:1017E0009F908F9008958F929F92AF92BF92CF92C9
:1017F000DF92EF92FF920F931F93CF93DF935C01E1
:101800006B014A01E90157FD52C0DC011A968D9126
:101810009C91481759070CF04AC0209709F447C01B
:1018200037FF07C0C9010196C80ED91ED195C195D1
:10183000D109F50180859185C816D906C4F5A601A0
:101840004C0F5D1F9A012150310937FD30C0D7FE82
:1018500003C0EA01D12CC12C281739071CF0EC0178
:10186000CC19DD09D501ED91FC910284F385E02DC1
:10187000C5011995780101E010E09E01A401B601AF
:10188000C5010E94C40AD501ED91FC910688F78933
:10189000E02DC501DF91CF911F910F91FF90EF9047
:1018A000DF90CF90BF90AF909F908F901994DF9171
:1018B000CF911F910F91FF90EF90DF90CF90BF904D
:1018C000AF909F908F9008958F929F92AF92BF920A
:1018D000CF92DF92EF92FF920F931F93CF93DF93FC
:1018E0004C016B015A01E901209709F46CC0011504
:1018F000110509F468C037FF07C0C9010196C80E79
:10190000D91ED195C195D109F401A085B185CA161A
:10191000DB060CF058C017FF07C0C8010196A80EDF
:10192000B91E119501951109F40182859385A816B8
:10193000B9060CF048C0F601EC0FFD1FAF01415095
:10194000510957FD40C0B501600F711F9B01215027
:10195000310937FD38C0D7FE03C0EF01D12CC12CAF
:10196000B7FE03C08B01B12CA12C4A175B071CF0FA
:10197000ED01CC19DD09281739071CF08C010A1973
:101980001B09D401ED91FC910284F385E02DC40183
:1019900019959E01A501B601C4010E94C40AD40193
:1019A000ED91FC910688F789E02DC401DF91CF917C
:1019B0001F910F91FF90EF90DF90CF90BF90AF906D
:1019C0009F908F901994DF91CF911F910F91FF906D
:1019D000EF90DF90CF90BF90AF909F908F90089541
:1019E000EF92FF920F931F93CF93DF9377FD32C057
:1019F000DC011896ED91FC916E177F075CF52115BF
:101A0000310541F137FF07C0F90131964E0F5F1FD5
:101A1000319521953109DC011A96ED91FC914E1713
:101A20005F07C4F4EA01C20FD31FDE011197B7FDAF
:101A300011C057FF03C09E0150E040E0AE17BF0742
:101A40001CF09F01241B350B7801890121E030E057
:101A50000E94C40ADF91CF911F910F91FF90EF90E8
:101A60000895EF92FF920F931F93CF93DF9357FD4B
:101A700031C0DC011A96ED91FC914E175F0754F5C9
:101A80002115310539F137FF07C0F90131966E0F85
:101A90007F1F319521953109DC011896ED91FC915C
:101AA0006E177F07BCF4EB01C20FD31FDE01119745
:101AB000B7FD10C077FF03C09E0170E060E0AE1775
:101AC000BF071CF09F01261B370B780101E010E0D7
:101AD0000E94C40ADF91CF911F910F91FF90EF9068
:101AE00008958F929F92AF92BF92CF92DF92EF9222
:101AF000FF920F931F93CF93DF9347012115310579
:101B000009F44BC00115110509F447C037FF07C0A0
:101B1000F90131966E0F7F1F319521953109DC0156
:101B20001896AD90BC906A157B05BCF517FF07C0F1
:101B3000F80131964E0F5F1F119501951109DC01D7
:101B40001A96ED91FC914E175F073CF56B01C20EA2
:101B5000D31EE6012197D7FD20C07A01E00EF11EC9
:101B6000D7011197B7FD19C077FF03C0960170E048
:101B700060E057FF03C0870150E040E0CA15DB0575
:101B80001CF09501261B370BAE17BF071CF08F0109
:101B9000041B150B74010E94C40ADF91CF911F91A1
:101BA0000F91FF90EF90DF90CF90BF90AF909F90FC
:101BB0008F900895EF92FF920F931F93CF93DF932F
:101BC000EC0177FD22C08885998568177907ECF4C8
:101BD00057FD1BC08A859B8548175907B4F47901C6
:101BE000E881F98102A4F3A5E02D01E010E021E0F5
:101BF00030E0CE011995B701CE01DF91CF911F9151
:101C00000F91FF90EF900C94D009DF91CF911F912D
:101C10000F91FF90EF900895089561E0FC01848199
:101C20000E94A2088091C30281111092C3020895FC
:101C3000FC0187A987FD06C0A38DB48D9C9181A965
:101C4000892B8C9308958EBD00000DB407FEFDCF47
:101C50008EB508958FEF0C94230E0F931F93CF939F
:101C6000DF93EC010E94B6098B010E942A0E8F3F80
:101C700069F00E94B609601B710B6C177D07A8F311
:101C800080E0DF91CF911F910F91089581E0F9CF0E
:101C90008CBD9DBD0895CF93DF93EC018091C3026D
:101CA000811109C081E08093C30280916F059091FA
:101CB00070050E94480E60E08C81DF91CF910C94FA
:101CC000A208CF92DF92EF92FF920F931F93CF93D0
:101CD000DF93EC01162F69017A018E81882389F048
:101CE0008F8198859C012F5F3F4F38872F838230EB
:101CF000924018F40E942A0EF3CFCE010E940D0EDE
:101D00001E82CE010E944B0E8CE291E00E942D0EAD
:101D1000812F80640E94230E08E110E0D701C601E4
:101D2000002E04C0B695A795979587950A94D2F78B
:101D30000E94230E08501109083F8FEF180771F712
:101D40008FEF0E94230E10E00E942A0E8A8787FFE1
:101D500004C01F3F11F01F5FF7CFDF91CF911F919C
:101D60000F91FF90EF90DF90CF900895CF92DF9288
:101D7000EF92FF920F93CF93DF93EC01690182E121
:101D8000411551056105710599F08B85833039F056
:101D900089E0440F551F661F771F8A95D1F79A0176
:101DA000AB0168E1CE010E94610E882319F084E046
:101DB0008D832DC08EEF0E94230E76018EEFD81AF0
:101DC000F70181917F010E94230EEC14FD04C1F7FD
:101DD0008FEF0E94230E8FEF0E94230E0E942A0E87
:101DE0008A878F71853071F4011116C0CE010E946F
:101DF0000D0E81E0DF91CF910F91FF90EF90DF907A
:101E0000CF90089581E18D83CE010E940D0ECE0109
:101E10000E940D0E80E0EECF88E592E00E942D0E2C
:101E2000811102C085E1C4CF20E030E0A9016DE05E
:101E3000CE010E94610E882311F084E1B9CF0E9487
:101E40002A0E8111FACFD2CF0F934091C502509143
:101E5000C6026091C7027091C80241155105610523
:101E6000710589F0082F29EC32E090E080E00E94B3
:101E7000B60E882349F01092C5021092C602109245
:101E8000C7021092C80281E00F9108950F93CF937B
:101E9000C82F8091C402811105C0C1E08C2FCF9161
:101EA0000F91089540910002509101026091020249
:101EB000709103020C2F29EC32E090E080E00E9448
:101EC000B60E811102C0C0E0E9CFCC2331F381E02E
:101ED0000E94240F8823B9F31092C402DFCFAF927F
:101EE000BF92CF92DF92EF92FF921F93CF93DF9337
:101EF0006B017C01142F8091000290910102A0914E
:101F00000202B09103028C159D05AE05BF0509F4D0
:101F1000ADC081E00E94460F8823E1F18091060068
:101F20008823A1F08091000090910100A09102000F
:101F3000B0910300C816D906EA06FB0639F4809171
:101F4000070090910800892B09F44FC0C09200004F
:101F5000D0920100E0920200F092030080910B0009
:101F6000A7019601833039F099E0220F331F441FF7
:101F7000551F9A95D1F761E190E080E00E94610ED3
:101F8000882391F083E08093050090E080E00E9438
:101F90000D0E80E0DF91CF911F91FF90EF90DF90C9
:101FA000CF90BF90AF9008950E94B609EB010E94B8
:101FB0002A0E80930A008F3F79F40E94B6096C1BA9
:101FC0007D0B6D32714098F38FE08093050090E0B7
:101FD00080E00E940D0ED9CF8E3FC1F5109208000F
:101FE0001092070081E080930600C9ECD2E089ECF2
:101FF000A82E84E0B82E0E942A0E8993AC16BD0646
:10200000D1F780910700909108009E5F909308009F
:102010008093070020910900222319F08115924036
:10202000E8F0809106008823C9F080910700909124
:1020300008009C012F5F3F4F30930800209307005A
:102040008230924028F40E942A0EEFCF8DE0BDCF5F
:1020500090E080E00E940D0E10920600C0920002F7
:10206000D0920102E0920202F09203024091C40277
:10207000412B4093C40281E08DCF4F925F926F92CB
:102080007F928F929F92AF92BF92CF92DF92EF9208
:10209000FF920F931F93CF93DF93EC0142305105D2
:1020A0006105710590F480E0DF91CF911F910F9150
:1020B000FF90EF90DF90CF90BF90AF909F908F9068
:1020C0007F906F905F904F90089589859A85AB853A
:1020D000BC850196A11DB11D84179507A607B707FA
:1020E00010F3CB88DC88ED88FE888F89803109F079
:1020F00042C0BB27A72F962F852F480159012A01DF
:102100003B01C80ED91EEA1EFB1E80910002909171
:102110000102A0910202B0910302C816D906EA0694
:10212000FB0699F58F898031C1F5B301A2015527CE
:1021300066277727440F551F47535D4FFA01918259
:1021400080828091C40281608093C4028A89823037
:1021500080F08D819E81AF81B8858C0D9D1DAE1D57
:10216000BF1D8093C5029093C602A093C702B0938F
:10217000C80281E099CFDB01CA01E7E0B695A795D7
:1021800097958795EA95D1F7B8CF40E0C701B6019A
:102190000E946F0F8111C6CF86CFB301A2014F7786
:1021A000552766277727440F551F440F551F475360
:1021B0005D4FFA0180829182A282B382C2CF8F9258
:1021C0009F92AF92BF92CF92DF92EF92FF920F93C6
:1021D0001F93CF93DF93FC0181859285A385B485FE
:1021E0000196A11DB11D84179507A607B70770F4C6
:1021F00080E0DF91CF911F910F91FF90EF90DF90E2
:10220000CF90BF90AF909F908F90089583889488CF
:10221000A588B6888789803189F5BB27A72F962F97
:10222000852FE9016A017B018F01BC01CD01680D99
:10223000791D8A1D9B1D8090000290900102A09044
:102240000202B090030286169706A806B90601F5A9
:10225000F8018789803111F5DD24EE24FF24F60191
:10226000EE0FFF1FE753FD4F80819181B0E0A0E0AA
:1022700088839983AA83BB8381E0BBCFDB01CA013A
:10228000C7E0B695A79597958795CA95D1F7C9CF19
:1022900040E00E946F0F8111DBCFAACFE894C7F80E
:1022A000DD24EE24FF24F601EE0FFF1FEE0FFF1FCB
:1022B000E753FD4F80819181A281B381BF70D8CF58
:1022C0008F929F92AF92BF92CF92DF92EF92FF9246
:1022D0000F931F93CF93DF93EC018D8181110EC07B
:1022E00080E0DF91CF911F910F91FF90EF90DF90F1
:1022F000CF90BF90AF909F908F9008950B891C89CD
:102300002D893E89041715072607370748F34A0128
:102310005B01823031F48A869B86AC86BD8681E083
:10232000E0CF81149104A104B10449F41E821F82FC
:10233000188619861A861B861C861D86F0CF0A858C
:102340001B852C853D85EB8DFC8D858590E0099660
:10235000B901A8014150510961097109082E04C051
:1023600076956795579547950A94D2F7750164015C
:10237000E1E0CE1AD108E108F10804C0F694E79430
:10238000D794C7948A95D2F7C416D506E606F70601
:1023900020F0012B022B032B11F58F89988DA98D2D
:1023A000BA8D8E839F83A887B9878E010A5F1F4FDE
:1023B000C114D104E104F10409F4ADCF4E815F8171
:1023C0006885798598018B8D9C8D0E94DF1091E046
:1023D000C91AD108E108F1088111EACF81CFC41AE6
:1023E000D50AE60AF70AE1CF3F924F925F926F92C9
:1023F0007F928F929F92AF92BF92CF92DF92EF9295
:10240000FF920F931F93CF93DF93CDB7DEB72C9737
:102410000FB6F894DEBF0FBECDBF5C01DC015B964A
:102420008D909C905C9716964D905D906D907C90F1
:102430001997411451046104710409F468C0BFEF95
:102440004B1A5B0A6B0A7B0A312CF4018185928559
:10245000A385B4859C01AD012F5F3F4F4F4F5F4F68
:1024600029873A874B875C87730162011D821E8230
:102470001F821886F40181859285A385B4852D81FC
:102480003E814F815885281739074A075B0708F0B6
:1024900056C089859A85AB85BC858C159D05AE0592
:1024A000BF0550F482E0C82ED12CE12CF12C92E033
:1024B000492E512C612C712C9E012F5F3F4FB7018B
:1024C000A601C4010E94DF108823C9F189819A8185
:1024D000AB81BC81892B8A2B8B2B09F1260137011B
:1024E0009FEF491A590A690A790A2D813E814F8165
:1024F00058852F5F3F4F4F4F5F4F2D833E834F8354
:1025000058873FEFC31AD30AE30AF30AB3CFF401A3
:1025100040805180628073803324339496CFC414FA
:10252000D504E604F70409F70FEF1FEF2FEF3FE0A4
:10253000B701A601C4010E943D10811119C080E0BD
:102540002C960FB6F894DEBF0FBECDBFDF91CF91B2
:102550001F910F91FF90EF90DF90CF90BF90AF90C1
:102560009F908F907F906F905F904F903F900895D5
:10257000D50116964D915D916D917C9119974115FC
:1025800051056105710539F097018601C4010E946A
:102590003D108823A1F2D5011696CD92DD92ED92E1
:1025A000FC921997332051F0D701C6010196A11D65
:1025B000B11DF40180839183A283B383F5018789E0
:1025C000908DA18DB28D892B8A2B8B2B39F4848130
:1025D000C78AD08EE18EF28E80688483F501848173
:1025E0008062848381E0ACCF1F93CF93DF93EC01B3
:1025F000162F8C8187FF2AC06E857F8588899989EF
:1026000041E00E946F0F882361F1EA8980E2E89F30
:10261000F0011124E753FD4F309719F18D8182307D
:1026200040F48B899C89AD89BE89848F958FA68F54
:10263000B78F8F89988D938F828F8F89988DA98D71
:10264000BA8DB58BA48B8C818F778C83111103C0CD
:102650008C818F7E8C83812FDF91CF911F910C9481
:10266000460F80E0DF91CF911F9108951F93CF9384
:10267000DF93EC018D81813031F090E080E0DF91DB
:10268000CF911F9108958C8181FFF7CF82FD1BC0F0
:1026900090E080E00E944B0E0E942A0E182F90E0DE
:1026A00080E00E940D0E1F3F41F78C8185FF1EC008
:1026B0008D81882321F060E0CE010E94F4128C818C
:1026C0008F7D8C83DACF4B895C896D897E898A8581
:1026D0009B85AC85BD8584179507A607B707C1F212
:1026E000CE010E9460118111D3CFC7CF4091C502A6
:1026F0005091C6026091C7027091C802452B462BCB
:10270000472B21F080E00E94240FB7CF80618C839B
:102710002A853B85317080E092E0821B930BAFCF1E
:102720009F92AF92BF92CF92DF92EF92FF920F9360
:102730001F93CF93DF9300D01F921F92CDB7DEB7C8
:102740008C016D83DC0115968C911597813009F011
:10275000B9C014968C9181FFB5C082FD9FC0D8018D
:102760005B96ED91FC915C971A96AD90BD90CD90E3
:10277000DC901D9794809A94B601A50189E0769526
:102780006795579547958A95D1F79422B1E0BB227A
:10279000992009F49FC0D8015B96ED91FC915C975C
:1027A0001696CD90DD90ED90FC901997B2E0CB1A83
:1027B000D108E108F108858504C0CC0CDD1CEE1CB5
:1027C000FF1C8A95D2F74685578560897189C40EAA
:1027D000D51EE61EF71EC90CD11CE11CF11CA1146C
:1027E000B10409F00AC1F8014285538564857585F5
:1027F00083899489A589B689481759076A077B0791
:1028000008F4FBC081E00E94460F882309F45AC0F7
:10281000C0920002D0920102E0920202F092030202
:102820008091C40281608093C402F501E753FD4F9B
:102830008D818083F80182859385A485B585019675
:10284000A11DB11D82879387A487B58743895489C9
:1028500065897689481759076A077B0738F4248108
:10286000838B948BA58BB68B20682483D801149618
:102870008C9183FD9FC081E090E00F900F900F90AE
:102880000F900F90DF91CF911F910F91FF90EF90DC
:10289000DF90CF90BF90AF909F900895F80143894B
:1028A00054896589768982859385A485B58548177D
:1028B00059076A077B0709F452CFC8010E946011CB
:1028C00081114DCF81E090E0D80113969C938E93B7
:1028D000129749C0D80116964D915D916D917C91EA
:1028E0001997A114B10409F071C041155105610592
:1028F000710589F557968D919D910D90BC91A02DF4
:102900000097A105B10509F04FC0C8010E94F4115C
:102910008823C1F2D8015B96ED91FC915C971696E5
:10292000CD90DD90ED90FC901997B2E0CB1AD108D4
:10293000E108F108858504C0CC0CDD1CEE1CFF1CF1
:102940008A95D2F74685578560897189C40ED51E50
:10295000E61EF71E48CF9E012F5F3F4FCF010E941A
:10296000DF10811103C090E080E087CF89819A81D8
:10297000AB81BC81F801238D348DF901278948EFA3
:102980005FEF60E070E0203121F048EF5FEF6FEF24
:102990007FE084179507A607B70730F0C8010E94AB
:1029A000F4118111F8CE8ECFF80186839783A0872A
:1029B000B187F1CEF8018581882309F483CF61E0E6
:1029C000C8010E94F412811156CF7CCF6A017B01AD
:1029D000B2E0CB1AD108E108F108858504C0CC0C1F
:1029E000DD1CEE1CFF1C8A95D2F746855785608951
:1029F0007189C40ED51EE61EF71E41E0C701B6015F
:102A00000E946F0F811111CF5DCFFC0125A921110B
:102A100004C081A192A10C94480E0895EF92FF92F8
:102A20000F931F93CF93DF93EC01162F7A01022FA0
:102A30000E9405158FA987FD06C0EB8DFC8D808156
:102A40009AA989238083ED8DFE8D80819CA989239D
:102A50008083612FCE010E94150AED8DFE8D80814D
:102A60009BA9892B808390E080E010E0801791077C
:102A70004CF4F70161917F01CE010E94150A81E0BB
:102A800090E0F4CF8FA987FD06C0EB8DFC8D80818F
:102A900099A9892B8083DF91CF911F910F91FF908E
:102AA000EF900895CF93DF93EC010E9405158FA955
:102AB00087FD06C0EB8DFC8D80819AA989238083D8
:102AC000DF91CF9108950895FC016370668B848136
:102AD000958126813781613039F0633029F0918703
:102AE000808733872287089531872087938782875D
:102AF00008952F923F924F925F926F927F928F92A2
:102B00009F92AF92BF92CF92DF92EF92FF920F937C
:102B10001F93CF93DF93CDB7DEB76A970FB6F894C4
:102B2000DEBF0FBECDBF9A8F898F7A8369834A013A
:102B3000D22E18870F833701BC2CDC0159962D91BA
:102B40003C915A972115310509F015C118968D91C0
:102B50009C911997681779070CF0D7C11A968D9137
:102B60009C91481759070CF0D0C14C2C512CB6E061
:102B7000CB9E600D711D11247C876B87161617067E
:102B80000CF0C3C1EA2DF0E0FA87E98793E0EE0F7D
:102B9000FF1F9A95E1F7F88BEF87CF01840F951F00
:102BA000181619060CF0B1C1A98DBA8D58968C91E2
:102BB000811104C0BFEABD1508F4D394A98DBA8D64
:102BC000ED91FC9111970284F385E02DCD011995CB
:102BD000B5E0DB9EC0011124E981FA81FC83EB831F
:102BE000312C212C9C012B59374F388F2F8B4A2D9C
:102BF00050E05E8B4D8BEF89F88DE20DF31D449113
:102C00009E828D82D12CC12C69817A81620D731DC7
:102C10007A8B698B842F90E09C8B8B8BE98DFA8D5E
:102C2000A081B18140FF82C0F1E0BF126FC0AF123E
:102C30006DC01C96ED91FC912F813885A4014C0D3F
:102C40005D1D69897A89898D9A8D1995EB89FC8931
:102C5000F595E7954E2F5FEFC51AD50A6D817E81F8
:102C60008D899E89680F791F7E836D8398E0C916D0
:102C7000D10481F6AFEF2A1A3A0AEB81FC81E40D08
:102C8000F51DFC83EB83F5E02F16310409F0B3CF7B
:102C90002F81388526153705B9F0A98DBA8DED91AC
:102CA000FC91B1E0BB1257C0AB1255C069817A816B
:102CB0006B5F7F4F0088F189E02D830128E030E0D1
:102CC000A401898D9A8D1995A98DBA8DED91FC91EC
:102CD00011970688F789E02DCD016A960FB6F89412
:102CE000DEBF0FBECDBFDF91CF911F910F91FF903F
:102CF000EF90DF90CF90BF90AF909F908F907F909C
:102D00006F905F904F903F902F9019941E96ED9189
:102D1000FC91EF80F88409851A8592014D815E81CE
:102D20006B817C81898D9A8D199590CF2F81388503
:102D30002615370509F48ACF31E0B31207C0A31274
:102D400005C01C96ED91FC91930178CF1E96ED91F4
:102D5000FC917301E0CF6B857C856419750906844D
:102D6000F785E02D73010F8518899201A401898DE3
:102D70009A8D1995A9CFF90134969491329745917E
:102D80005491D91AB7E0DB9E400D511D1124F90171
:102D9000259134913C8B2B8BFA0125903490FA01CC
:102DA0003296749031963491398B32966490319684
:102DB000449041E04C1518F04A1508F07FC0662D8C
:102DC000062C000C770B7C836B83842D042C000C69
:102DD000990B9E838D83A98DBA8DED91FC911197EE
:102DE0000284F385E02DCD011995512CD12CC12CF5
:102DF000EA2DF0E0FA87E9872B2D30E03C872B871E
:102E0000A401440D511D47FC5A95588F4F8B698181
:102E10007A81660D711D67FC7A957E876D87798949
:102E2000C71608F051CF2C2D30E04D815E81420F46
:102E3000531FA985BA854A9FC0014B9F900D5A9F89
:102E4000900D1124FC01E80DF91DF88BEF87852DFD
:102E5000612C4F89588D420F531F5E8B4D8B671429
:102E600008F050C044244394480E877041F4C101D7
:102E70000196EB89FC89E20DF31DD4901C01D7FE6D
:102E800019C0A98DBA8DED91FC91662D70E0B1E06D
:102E9000BB1219C0AB1217C02D853E85620F731F80
:102EA0000484F585E02D2F8138854D895E89898DD3
:102EB0009A8D1995DD0C6394842DD1CF1E821D82CD
:102EC0001C821B8288CF4B815C81640F751FAB8590
:102ED000BC856A9FC0016B9F900D7A9F900D112455
:102EE00069817A81680F791F0684F785E02DEF806C
:102EF000F88409851A859D014F855889898D9A8D99
:102F00001995D8CF570CC3948ACF6A960FB6F89408
:102F1000DEBF0FBECDBFDF91CF911F910F91FF900C
:102F2000EF90DF90CF90BF90AF909F908F907F9069
:102F30006F905F904F903F902F9008958F929F9247
:102F4000AF92CF92EF92FF920F931F93CF93DF93A5
:102F5000EC01262F898D9A8D009709F051C06A30B7
:102F6000D1F41D861C868D8948E0849F9001112430
:102F70008E859F85820F931F9F878E8781E090E0CB
:102F8000DF91CF911F910F91FF90EF90CF90AF9075
:102F90009F908F9008956D3089F3CC88AD888F898C
:102FA0008823C1F08C859D8536E0C39E800D911DE0
:102FB0001124488559854817590764F44E855F8563
:102FC0001D861C8638E0A39EC0011124840F951F26
:102FD0009F878E87EA88FB88088919894E855F85D7
:102FE0006C857D85CE010E9479152C898C859D8507
:102FF00046E0249F800D911D11249D878C87BECFB4
:103000006A3069F41D861C86FC013696E4912D8990
:103010008E859F85E29F800D911D1124ADCF6D306F
:1030200009F4ACCFFC0134963491631708F4A6CFB1
:103030003196E491E61708F4A1CFFC013296859011
:103040009490462F431B342F47E0349F800C911CF3
:103050001124F401329634913196E4913323A9F18D
:10306000EE2399F1CC88F4013596E491AD884F892F
:10307000442301F10E2E000CFF0BE30FF11DCE9E39
:10308000A001CF9E500D11246C857D85460F571FE2
:1030900068857985641775076CF44E855F851D8694
:1030A0001C86FC013696E491AE9E400D511D112404
:1030B0005F874E87EA88FB88088919894E855F8576
:1030C0006C857D85CE010E947915F4013496E491DA
:1030D0002C898C859D85E29F800D911D11248DCFBB
:1030E0006F927F928F929F92AF92BF92CF92DF9218
:1030F000EF92FF920F931F93CF93DF93EC016B013D
:103100005A0139014801E881F9810284F385E02DF3
:103110001995E881F9810288F389E02D87019301EF
:10312000A501B601CE011995A501480D591D4150C3
:103130005109E881F9810288F389E02D9301B601F4
:10314000CE011995E881F9810088F189E02D94017B
:10315000A501B601CE011995C60CD71CB601615068
:103160007109E881F9810088F189E02D9401A501B8
:10317000CE011995E881F9810688F789E02DCE0105
:10318000DF91CF911F910F91FF90EF90DF90CF9043
:10319000BF90AF909F908F907F906F9019946F9297
:1031A0007F928F929F92AF92BF92CF92DF92EF92D7
:1031B000FF920F931F93CF93DF935C01EB016A01A2
:1031C000490138018701DC01ED91FC916217730719
:1031D00019F5641675062CF0962D872D3A01C92E27
:1031E000D82E9601261937092F5F3F4F048CF58D95
:1031F000E02DA301BE01C5011995DF91CF911F916B
:103200000F91FF90EF90DF90CF90BF90AF909F9085
:103210008F907F906F9008954615570591F426176B
:10322000370724F0892D4B01C22FD82F9E01281972
:1032300039092F5F3F4F068CF78DE02DA601B401B1
:10324000DACF0284F385E02D1995D501ED91FC913B
:103250000488F589E02D83019401A601BE01C50112
:103260001995D501ED91FC910688F789E02DC501EE
:10327000DF91CF911F910F91FF90EF90DF90CF9052
:10328000BF90AF909F908F907F906F901994EF9226
:10329000FF920F931F93DC011A960D911C911B97BF
:1032A00018962D913C911997ED91FC9100A0F1A1F8
:1032B000E02D7B0150E040E070E060E019951F9147
:1032C0000F91FF90EF9008954F925F926F927F92CF
:1032D0008F929F92AF92BF92CF92DF92EF92FF9226
:1032E0000F931F93CF93DF936C012B015A01390188
:1032F0004801DC01ED91FC910284F385E02D1995E4
:10330000E201640C751CD601ED91FC91C615D70540
:103310005CF40088F189E02D87019401A501BE01CC
:10332000C60119952196EFCF0688F789E02DC601D1
:10333000DF91CF911F910F91FF90EF90DF90CF9091
:10334000BF90AF909F908F907F906F905F904F90C5
:1033500019948F929F92AF92BF92CF92DF92EF9289
:10336000FF920F931F93CF93DF93EC015B014A0110
:103370006901E881F9810284F385E02D19959501B1
:103380002C0D3D1D21503109E881F9810488F58912
:10339000E02D78018401A401B501CE011995E881E1
:1033A000F9810688F789E02DCE01DF91CF911F9139
:1033B0000F91FF90EF90DF90CF90BF90AF909F90D4
:1033C0008F9019948F929F92AF92BF92CF92DF927B
:1033D000EF92FF920F931F93CF93DF93EC015B016A
:1033E0004A0169017801E881F9810284F385E02DC1
:1033F0001995C80CD91C860101501109E881F98181
:103400000488F589E02D9501A401B501CE01199537
:10341000E881F9810688F789E02DCE01DF91CF910F
:103420001F910F91FF90EF90DF90CF90BF90AF90E2
:103430009F908F9019940895EF92FF920F931F938E
:10344000DC01ED91FC9100A0F1A1E02D19951F91F7
:103450000F91FF90EF9008950F931F93DC01ED9172
:10346000FC91068CF78DE02D19951F910F91089511
:103470000F931F93DC01ED91FC91048CF58DE02DF1
:1034800019951F910F910895DC01ED91FC91008435
:10349000F185E02D19942F923F924F925F926F9297
:1034A0007F928F929F92AF92BF92CF92DF92EF92D4
:1034B000FF920F931F93CF93DF9300D000D0CDB72F
:1034C000DEB73C016A013E832D83FC82EB8258010A
:1034D000A41AB50AB7FE03C0B194A194B1088D80B7
:1034E0009E80861A970A97FE03C091948194910852
:1034F0008A149B045CF0902F812F0D811E819D8387
:103500008E839C2D8D2D6B01692F782F0C151D0539
:103510005CF09D818E817E836D83692F782F902F43
:10352000812F8601C92ED82E1601201A310A2B01AF
:103530002D813E81421A530A57FE03C05194419493
:103540005108710137FE03C03FEFE31AF30AF59407
:10355000E7948D819E81861797075CF5A1E0B0E026
:10356000BA83A983C016D1064CF1D301ED91FC9129
:103570000484F585E02D2B813C81A8016D817E813D
:103580008A149B041CF04D815E81B801C30119951A
:10359000E418F508F7FE0AC02D813E8189819A81E1
:1035A000280F391F3E832D83E20CF31C0F5F1F4F42
:1035B000D9CF2FEF3FEF3A832983D4CF26960FB68A
:1035C000F894DEBF0FBECDBFDF91CF911F910F9159
:1035D000FF90EF90DF90CF90BF90AF909F908F9033
:1035E0007F906F905F904F903F902F900895AF9293
:1035F000BF92CF92DF92EF92FF920F931F93CF93E0
:10360000DF93EC015B016A01215031097901E60E7B
:10361000F71E01501109040F151F6AE20E94420AA9
:10362000B501CE010E94D009B701CE010E94D00998
:103630006BE2CE010E94420AB601CE010E94D0097F
:10364000B801CE010E94D0096CE2CE01DF91CF918A
:103650001F910F91FF90EF90DF90CF90BF90AF90B0
:103660000C94420A611106C060E220E050E040E0A4
:103670000C940E1561E2F9CFCF93DF931F92CDB773
:10368000DEB7FC016370668B623071F0633011F15C
:1036900088E4613051F488E2898380E491E0918785
:1036A000808780EF90E008C088E8898380EF90E011
:1036B0009187808780E491E09387828721E0AE0143
:1036C0004F5F5F4F66E3CF010E940E150F90DF91B1
:1036D000CF91089588EEE0CF90E080E008950895BE
:1036E000FB0101900020E9F73197AF01461B570B12
:1036F000DC01ED91FC910280F381E02D1994CF93D0
:10370000DF93FC01448155816081718182ED94E0F9
:103710000E946E07EC0168E572E082ED94E00E9481
:10372000701B8C0F9D1FDF91CF910895EDE6FAE09D
:10373000738B628B718B608B21E0278BBC01CF0177
:103740000C94701BAF92BF92CF92DF92EF92FF92D8
:103750000F931F93CF93DF93EC016A017B01C11498
:10376000D104E104F10431F4C12C42E1D42E4AE742
:10377000E42EF12C8FA987FD07C061E00E942E097D
:1037800061E08FA90E94A20861E088AD0E942E0925
:1037900061E088AD0E94A2088DA98111C1C040E0FE
:1037A00052E16AE770E0C416D506E606F70640F473
:1037B00076956795579547958F5F8630A1F787E097
:1037C000982F906A969599A3809581708AA31BA2E1
:1037D0001CA21DA21EA21FB7F8948091C2028111E3
:1037E00027C0E1E6FEE08491E1E0FEE09491E82F5D
:1037F000F0E0EE0FFF1FEB59F24FA591B491EC9161
:10380000E92321F461E085E30E94A20861E085E3F9
:103810000E942E098CB580618CBD8CB580648CBDF6
:1038200061E084E30E942E0961E083E30E942E0997
:103830008091C2028F5F8093C2021FBF8EA987FD55
:1038400021C061E00E942E0961E08EA90E94A208B9
:1038500064E670E080E090E00E94840960E08EA958
:103860000E94A20864E670E080E090E00E94840973
:1038700061E08EA90E94A20868EC70E080E090E010
:103880000E9484098EA987FF0DC020E050E040E02F
:1038900061E0CE010E940E1566E970E080E090E0E4
:1038A0000E94840906EF17E0C8010196F801E49030
:1038B000EE2009F495C00E5F1F4FFC01F490CF2C51
:1038C000E894C7F8CE010E9405158FA987FD06C0B0
:1038D000EB8DFC8D80819AA989238083ED8DFE8DEF
:1038E00080819CA9892380836E2DCE010E94150AB8
:1038F000ED8DFE8D80819BA9892B8083B12CA12C1D
:10390000D12CAC14BD040CF057C0F801EA0DFB1D1E
:103910006491CE010E94150AFFEFAF1ABF0AF1CFE2
:103920000CE21EE0F12C8130B9F461E08AA50E941E
:103930002E0960E08AA50E94A20861E08CA50E9481
:103940002E0960E08CA50E94A2088BA587FD76CF8A
:1039500060E00E942E0972CFF8018491E82FF0E018
:10396000EE0FFF1FEE5EF14F859194912F8D38A1E0
:103970002817390741F461E08F2D0E942E0960E07D
:103980008F2D0E94A208F3940F5F1F4FF6E4FF12E1
:10399000E3CF61E08EA50E942E0961E08EA50E9412
:1039A000A2088FA587FD4ACF61E00E942E0961E041
:1039B0008FA50E94A20842CF8FA987FD06C0EB8D7C
:1039C000FC8D808199A9892B80830C0D1D1DF7FE2C
:1039D0006BCF66E970E080E090E00E94840964CFDC
:1039E00080EF90E09987888780E491E09B878A87C1
:1039F000DF91CF911F910F91FF90EF90DF90CF90CB
:103A0000BF90AF9008950E941A26CF93DF93FC01D8
:103A1000C081D181209761F08991882349F0082ED7
:103A2000000C990B0E941F26FE0131978083F4CF72
:103A3000DF91CF910895FC0180819181009711F071
:103A40000C94B02408950F931F93CF93DF93EC0150
:103A500088819981009759F02A813B812617370781
:103A600030F081E0DF91CF911F910F9108958B018C
:103A70006F5F7F4F0E943925009759F099838883A3
:103A80001B830A832C813D81232B59F7FC01108273
:103A9000E8CF80E0E7CFEF92FF920F931F93CF9391
:103AA000DF936115710541F480E0DF91CF911F91A3
:103AB0000F91FF90EF90089541155105B1F07B01F2
:103AC000EC010C811D81040F151FB8010E94231DFC
:103AD000882351F3288139818C819D81B701820F20
:103AE000931F0E9430261D830C8381E0DECFEF926E
:103AF000FF920F931F93CF93DF931F921F92CDB727
:103B0000DEB78C0180E389831A82F801E480F580B6
:103B1000FFEFEF1AFF0AB701C8010E94231D882397
:103B200081F0F8012081318184819581BE016F5F30
:103B30007F4F820F931F0E943026F801F582E482A6
:103B400081E00F900F90DF91CF911F910F91FF9027
:103B5000EF900895EF92FF920F931F93CF93DF930F
:103B6000EC017B018A01BA010E94231D2881398161
:103B7000811114C02115310519F0C9010E94B0242A
:103B8000198218821D821C821B821A82CE01DF914B
:103B9000CF911F910F91FF90EF9008951D830C839B
:103BA000B701C9010E943026F1CFEF92FF920F9327
:103BB0001F93CF93DF9300D000D000D0CDB7DEB7F6
:103BC0008C01862FF80111821082138212821582D5
:103BD000148240E19E012F5F3F4F7901B90190E0CF
:103BE0000E94C423F70101900020E9F73197AF014B
:103BF0004E195F09B701C8010E94AA1D29960FB688
:103C0000F894DEBF0FBECDBFDF91CF911F910F9112
:103C1000FF90EF9008951F920F920FB60F9211240C
:103C20000BB60F922F933F934F935F936F937F93B6
:103C30008F939F93AF93BF93EF93FF9382ED94E0A5
:103C40000E94E207FF91EF91BF91AF919F918F91F9
:103C50007F916F915F914F913F912F910F900BBE8C
:103C60000F900FBE0F901F9018951F920F920FB6D6
:103C70000F9211240BB60F922F938F939F93EF9374
:103C8000FF93E091E204F091E3048081E091E80485
:103C9000F091E90482FD1DC090818091EB048F5F5B
:103CA0008F732091EC04821741F0E091EB04F0E077
:103CB000EE52FB4F958F8093EB04FF91EF919F9114
:103CC0008F912F910F900BBE0F900FBE0F901F90F2
:103CD00018958081F2CF1F920F920FB60F92112488
:103CE0002F933F938F939F93AF93BF938091CA0479
:103CF0009091CB04A091CC04B091CD043091C90433
:103D000023E0230F2D3758F50196A11DB11D2093F7
:103D1000C9048093CA049093CB04A093CC04B093BD
:103D2000CD048091CE049091CF04A091D004B091A5
:103D3000D1040196A11DB11D8093CE049093CF04B0
:103D4000A093D004B093D104BF91AF919F918F9174
:103D50003F912F910F900FBE0F901F90189526E85E
:103D6000230F0296A11DB11DD2CFFC01118210823A
:103D7000138212821582148250E040E06AE572E0FC
:103D80000C94AA1DCF93DF931092D5041092D40403
:103D900088EE93E0A0E0B0E08093D6049093D7043F
:103DA000A093D804B093D9048EE092E09093D3040A
:103DB0008093D20485EC90E09093DF048093DE043E
:103DC00084EC90E09093E1048093E00480EC90E038
:103DD0009093E3048093E20481EC90E09093E504F7
:103DE0008093E40482EC90E09093E7048093E604EF
:103DF00086EC90E09093E9048093E8041092EB0441
:103E00001092EC041092ED041092EE0480E5809381
:103E10006F0510927005109276051092770510923A
:103E20007A0510927C0582E090E0A0E0B0E08093FB
:103E30007D0590937E05A0937F05B0938005109239
:103E4000940510929E0510929D0580E592E0909356
:103E50009C0580939B051092A005AAEBB5E090E02D
:103E600080E021E2E1E0F0E08630910510F4F0E03E
:103E7000E0E0AC01425F5F4FE40FF51F2093570075
:103E8000E491ED9301968930910561F78FEF80936E
:103E9000C3051092C5051092C4051092CF0510926B
:103EA000CE058FEF9FEFDC018093CA059093CB0581
:103EB000A093CC05B093CD0583E08093C00A82E047
:103EC0008093C10A85E08093C20A86E08093C30A8A
:103ED00061E083E00E942E0961E08091C10A0E94A6
:103EE0002E0961E08091C20A0E942E0960E0809153
:103EF000C30A0E942E0961E08091C00A0E94A208B4
:103F000060E08091C10A0E94A20860E08091C20A2C
:103F10000E94A2081092B10A1092B00A8FEF9FE09F
:103F20009093B30A8093B20A1092B50A1092B40A21
:103F30009093B70A8093B60A80E491E09093B90A0F
:103F40008093B80A20EF30E03093BB0A2093BA0A7E
:103F50001092BD0A1092BE0A1092BF0A1092BC0ABB
:103F60001092700A10926F0A3093720A2093710AAD
:103F70009093740A8093730A3093760A2093750A9B
:103F80009093780A8093770A1092830A10927A0AA3
:103F90001092790A10927C0A10927B0A81E0809339
:103FA000820A8093810A2FEF3FEF3093800A20939B
:103FB0007F0A30937E0A20937D0A8093840A1092B0
:103FC000850A1092870A1092860A1092A20A88E047
:103FD0008093A30A8AE08093A40A89E08093A50ACB
:103FE0001092A70A1092A60A1092A90A1092A80A83
:103FF0001092AA0A1092AB0A1092AC0A1092AD0A63
:104000001092AE0A1092AF0A80ED95E090938D0A5F
:1040100080938C0AE5E3FEE0E491F0E0EE0FFF1FF1
:10402000EE5EF14F8591949190938B0A80938A0A6A
:10403000E5EDFDE084918093A00AE6E3FEE0E491E3
:10404000F0E0EE0FFF1FEE5EF14F259134913093BB
:10405000890A2093880AE6EDFDE0E491E0939E0A48
:10406000E095E0939F0AE82FE095E093A10A80E2B3
:1040700092E090936E0A80936D0AE7EEF8E0118269
:1040800010827E962AE0ED36F207C9F71092CA0830
:104090001092C9081092AC081092AB0810928E08CA
:1040A00010928D081092700810926F0810925208AA
:1040B000109251081092340810923308109216088A
:1040C000109215081092F8071092F7071092DA076D
:1040D0001092D9071092BC071092BB0710929E074E
:1040E00010929D071092800710927F07109262072E
:1040F000109261071092440710924307109226070E
:104100001092250710920807109207071092EA06EE
:104110001092E9061092CC061092CB061092AE06D1
:104120001092AD061092900610928F060E94B6096A
:10413000CFE6D6E0EBE0F6E043EE55E019921192BF
:104140001192DA016D937D938D939D93AD019F0143
:10415000225B3F4FD9011D921C92B6E0EF31FB0765
:1041600069F710928E0610928D068DED95E00E94F3
:10417000B51E87ED95E00E94B51E81ED95E0DF91BB
:10418000CF910C94B51ECF93DF9300D000D01F9237
:104190001F92CDB7DEB7789484B5826084BD84B5B4
:1041A000816084BD85B5826085BD85B5816085BD32
:1041B00080916E00816080936E00109281008091EA
:1041C0008100826080938100809181008160809372
:1041D0008100809180008160809380008091B10097
:1041E00084608093B1008091B00081608093B000C2
:1041F0008091910082608093910080919100816014
:1042000080939100809190008160809390008091D4
:10421000A10082608093A1008091A10081608093C1
:10422000A1008091A00081608093A0008091210175
:10423000826080932101809121018160809321011E
:104240008091200181608093200180917A008460B8
:1042500080937A0080917A00826080937A008091C6
:104260007A00816080937A0080917A0080688093E0
:104270007A001092C100E091E204F091E30482E040
:104280008083E091DE04F091DF041082E091E0048D
:10429000F091E10480E180831092EA04E091E60469
:1042A000F091E70486E08083E091E404F091E50476
:1042B000808180618083E091E404F091E504808155
:1042C00088608083E091E404F091E5048081806857
:1042D0008083E091E404F091E50480818F7D808308
:1042E00040E050E0BA018DE69AE00E94A21B60E037
:1042F0008DE69AE00E943C1B70E060E08DE69AE05B
:104300000E9447198091860A9091870A892B49F06B
:1043100080917B0A90917C0A069790937C0A809307
:104320007B0A1092870A1092860A61E08AE00E9456
:104330002E0961E085E30E942E0961E085E30E9479
:10434000A20861E08AE00E94A208AAEBEA2EA5E09A
:10435000FA2E8701D80111968C91803120F48DEDD1
:1043600095E00E94771DF8016181CE0101960E94BF
:10437000D51D4D815E8169817A818DED95E00E9428
:104380004B1DCE0101960E941B1D0F5F1F4FF5E0D4
:10439000023C1F07F9F60AEB15E0D80111968C9143
:1043A000803120F487ED95E00E94771DF80161814E
:1043B000CE0101960E94D51D4D815E8169817A8171
:1043C00087ED95E00E944B1DCE0101960E941B1DBA
:1043D0000F5F1F4FF5E00E3B1F07F9F6D70115964B
:1043E0008C91803120F481ED95E00E94771DF701DA
:1043F0006581CE0101960E94D51D4D815E81698146
:104400007A8181ED95E00E944B1DCE0101960E94BC
:104410001B1DFFEFEF1AFF0A0E151F05F9F687EDBA
:1044200095E00E94051D81ED95E00E94051D35EC8B
:10443000E32E3DE0F32EF092870AE092860A11E027
:104440001093810A1093820A88E290E090937A0A8E
:104450008093790A8EE190E090937C0A80937B0AA6
:104460006FEF7FEF8BE592E00E94961BF092870A38
:10447000E092860A1093810A1093820A86E290E005
:1044800090937A0A8093790A8CE390E090937C0A67
:1044900080937B0A6FEF7FEF8EEA92E00E94961B7B
:1044A000F092870AE092860A1093810A1093820A9A
:1044B00044E1A42EB12CB0927A0AA092790A58EC69
:1044C000C52ED12CD0927C0AC0927B0A60EE77E098
:1044D0008FE692E00E94961BF092870AE092860A8D
:1044E0001093810A1093820A68E7862E912C90928D
:1044F0007A0A8092790AD0927C0AC0927B0AC12CF7
:1045000078EFD72ED092800AC0927F0AD0927E0A8E
:10451000C0927D0A4091D5055091D6056091D10594
:104520007091D2058DE69AE00E946E07F092870A9C
:10453000E092860A1093810A1093820AB0927A0A56
:10454000A092790AECEDAE2EB12CB0927C0AA0922A
:104550007B0A60EE77E086E792E00E94961BF0927D
:10456000870AE092860A1093810A1093820A909239
:104570007A0A8092790AB0927C0AA0927B0AD09241
:10458000800AC0927F0AD0927E0AC0927D0A409132
:10459000DB055091DC056091D7057091D8058DE65B
:1045A0009AE00E946E076DE772E082ED94E00E944F
:1045B000701B68E572E082ED94E00E94701B81ED53
:1045C00095E00E947F1B87ED95E00E947F1BF2E043
:1045D0002F2E312C0E94B6092B013C01EBE0F6E0B6
:1045E00003EE15E018870F8330E020E0AF01425959
:1045F0005F4FDA011D921C92808191813296892B46
:10460000A9F1AF81B8854D915D916D917C91139722
:10461000DC968D909D90AD90BC90DF977301620108
:10462000C41AD50AE60AF70AC814D904EA04FB0436
:10463000E8F0480D591D6A1D7B1D4D935D936D93E8
:104640007C931397C9018159994FDC018C91882380
:1046500069F042AD53AD41155105A1F5CF01845923
:104660009F4F41E050E0DC014D935C932F5F3F4F43
:104670004F8158854C5F5F4F58874F832A303105F3
:1046800009F0B4CFD12CC12C580156E9A50EB11CAC
:10469000D5018D919C918130910599F10297B9F1E5
:1046A000BFEFCB1ADB0A0E5F1F4FEAE0CE16D10434
:1046B00059F764E170E080E090E00E9484090E9474
:1046C000710888CF5F016EE4A60EB11CD5018D91F3
:1046D0009C918417950754F66F01BCE6CB0ED11C54
:1046E00061E070E0D6016D937C930196D5018D93C6
:1046F0009C93841795070CF4B9CFD6012D923C9268
:10470000B5CFD8019896ED91FC911995C9CFD801F4
:104710009896ED91FC91199580918D0690918E0659
:10472000009709F4BDCFF80120A531A5232B09F48A
:10473000B7CF11A610A6F601E159F94F1082D501A5
:104740001D921C92F601EE0FFF1FEE0FFF1FED51A1
:10475000FA4F14AE15AE16AE17AEF801E858FF4F7B
:1047600011821082019790938E0680938D0698CFC8
:1047700081ED95E00E941B1D87ED95E00E941B1DB9
:104780008DED95E00C941B1DBB27FB015527AA2737
:10479000880F991FAA1FA41710F0A41B83955051CE
:1047A000B9F7A05DAA3308F0A95DA193009779F746
:1047B000B111B1931192CB010C94DE23DC01FC0109
:1047C000672F71917723E1F7329704C07C916D9345
:1047D00070836291AE17BF07C8F30895A29FB0011E
:1047E000B39FC001A39F700D811D1124911DB29F25
:1047F000700D811D1124911D0895EE0FFF1F881F5C
:104800008BBF0790F691E02D19940E94EE2333237D
:1048100012F48A1B9B0B0C940F240E94EE23B7FF0B
:104820000895821B930B08950F931F93CF93DF93EB
:104830008230910510F482E090E0E091CE0AF09190
:10484000CF0A30E020E0B0E0A0E0309799F42115E5
:10485000310509F44AC0281B390B24303105D8F53D
:104860008A819B816115710589F1FB0193838283A4
:10487000FE0111C0408151810281138148175907FF
:10488000E0F04817590799F4109761F012960C93CD
:10489000129713961C933296CF01DF91CF911F91FF
:1048A0000F9108950093CE0A1093CF0AF4CF2115EB
:1048B000310551F04217530738F0A901DB019A0185
:1048C000BD01DF01F801C1CFEF01F9CF9093CF0A0D
:1048D0008093CE0ACDCFFE01E20FF31F8193919317
:1048E0002250310939832883D7CF2091CC0A3091C7
:1048F000CD0A232B41F42091060230910702309318
:10490000CD0A2093CC0A2091040230910502211592
:10491000310541F42DB73EB740910802509109028C
:10492000241B350BE091CC0AF091CD0AE217F30776
:10493000A0F42E1B3F0B2817390778F0AC014E5F0F
:104940005F4F2417350748F04E0F5F1F5093CD0A75
:104950004093CC0A819391939FCFF0E0E0E09CCF0D
:10496000CF93DF930097E9F0FC0132971382128214
:10497000A091CE0AB091CF0AED0130E020E010976F
:10498000A1F420813181820F931F2091CC0A3091B4
:10499000CD0A2817390709F061C0F093CD0AE093DA
:1049A000CC0ADF91CF910895EA01CE17DF07E8F531
:1049B0004A815B819E0141155105B1F7E901FB83F5
:1049C000EA8349915991C40FD51FEC17FD0761F493
:1049D000808191810296840F951FE90199838883D4
:1049E000828193819B838A83F0E0E0E012968D912F
:1049F0009C9113970097B9F52D913C911197CD019A
:104A00000296820F931F2091CC0A3091CD0A28176D
:104A1000390739F6309751F51092CF0A1092CE0A25
:104A2000B093CD0AA093CC0ABCCFD383C28340817C
:104A30005181840F951FC817D90761F44E5F5F4FEE
:104A400088819981480F591F518340838A819B81B6
:104A5000938382832115310509F0B0CFF093CF0AFB
:104A6000E093CE0A9ECFFD01DC01C0CF13821282FB
:104A7000D7CF4F925F926F927F928F929F92AF9219
:104A8000BF92CF92DF92EF92FF920F931F93CF933B
:104A9000DF938C01009799F4CB01DF91CF911F91A7
:104AA0000F91FF90EF90DF90CF90BF90AF909F90CD
:104AB0008F907F906F905F904F900C941424FC0126
:104AC000E60FF71F9C0122503109E217F30708F4A3
:104AD000AEC0D901CD91DC911197C617D70720F14F
:104AE000C530D10578F0CE0104978617970750F0AE
:104AF000C61BD70B2297C193D1936D937C93CF01A3
:104B00000E94B024C801DF91CF911F910F91FF90B7
:104B1000EF90DF90CF90BF90AF909F908F907F905D
:104B20006F905F904F9008955B01AC1ABD0A4C01E5
:104B30008C0E9D1EA091CE0AB091CF0A512C412C13
:104B4000F12CE12C109731F58091CC0A9091CD0A8F
:104B50008815990509F05CC04616570608F058C03C
:104B60008091040290910502009741F48DB79EB7A1
:104B70004091080250910902841B950BE817F90730
:104B800008F055C0F093CD0AE093CC0AF901718387
:104B90006083B8CF8D919C91119712966C9012976B
:104BA00013967C901397A815B90559F56C0142E04E
:104BB000C40ED11CCA14DB0420F1AC014A195B09F4
:104BC000DA011296159780F06282738251834083D6
:104BD000D9016D937C93E114F10471F0D701139620
:104BE000FC93EE9312978ECF22968C0F9D1FF901A6
:104BF00091838083F301EFCFF093CF0AE093CE0A45
:104C000081CF4816590608F42C017D01D3019ACFB3
:104C1000CB010E9414247C01009749F0AE01B80139
:104C20000E942726C8010E94B02487016BCF10E0A4
:104C300000E068CF81E090E0F8940C943726911161
:104C4000089581568A5108F4805285580895FB01D1
:104C5000DC0102C001900D9241505040D8F70895F8
:104C6000FB01DC0101900D920020E1F7089517E0AF
:104C7000CAE3D7E000E006C0802FFE010E94FD23BA
:104C80002196011DCB33D10780E00807A9F7F894DE
:024C9000FFCF54
:104C9200FFFFFFFF0000D00A8000000000000408B0
:104CA2006E079B075108CC07AA07BE070000000049
:104CB2009E176E076C1B6F1B740A5215DA0D710D6D
:104CC200F00C310D4B1A180E3C1B321B820BF30BEE
:104CD200640C4719CF187018A21BF71A00000000C5
:104CE20090136E0736136F1B0D0A0041736B206120
:104CF2002076616C6964206C6963656E7365004B34
:104D0200657920313A004B657920323A004E6F7452
:104D1200206C6963656E7365642C2061736B20611E
:104D220020636F64652F70726F63656475726520AE
:104D3200666F7220756E6C6F636B696E6720746F3D
:104D420020736164647973406C696265726F2E6965
:024D52007400EB
:00000001FF
